:1008DB002B3834393637393932323938002B434DCE
:1008EB00540052494E4700415445300D0A004154C3
:1008FB002B4950523D393630300D0A0041542B43B1
:10090B004D47463D310D0A0041542B434E4D493D59
:10091B00322C322C302C300D0A00415426570D0A44
:10092B00004F4B004461204B686F6920446F6E672A
:10093B00205468616E6820436F6E670A0D00415446
:10094B002B434D47533D004154480D0A0044612051
:10095B004261742052656C617920310D0A0044614B
:10096B00205461742052656C617920310D0A00446A
:10097B0061204261742052656C617920320D0A004E
:10098B004461205461742052656C617920320D0AE8
:0D099B0000536169204375205068617000B1
:080DAE000116000317FF08DB2A
:1009A800C2A0C2A1E4F514F515120DA2120DBF12D2
:1009B8000BE3E516B401FB7FF47E01120D5A750BAB
:1009C800FF750C08750DE87B007A007929120B6118
:1009D800EA494B6023120AD77F2C7E01120D5A85F3
:1009E800170B85180C85190D7B007A00791A120BE4
:1009F80061E94A6003120800750BFF750C08750D54
:100A0800ED7B007A007929120B61EA494B600312E9
:100A18000D8FE4F514F515F516FB7A007929120DFA
:100A28007A7D007B007A007929120CD57B007A0048
:100A3800791A120D7A7D007B007A00791A120CD58A
:030A48000209BAE6
:100AD700E4FFFEF514F515AD1574292DF9E7640D3E
:100AE700600AAD1574292DF9E7B40A0A0515E5154D
:100AF70070E5051480E1AD1574292DF9E7642260CE
:100B07000A0515E51570EF051480EB0515E5157059
:100B1700020514E4FEFFAD1574292DF8E6FD741ADD
:100B27002FF8A6050515E515700205140FBF00017E
:100B37000EEF640C4E70DFE4F514F515AF1574294C
:100B47002FF9E7640A600A0515E51570EF051480AB
:090B5700EB0515E515700205140B
:010B60002272
:040D56007FC87E00D4
:100D5A00E4FDFCC3ED9FEC9E5015E4FBFA0BBB00CF
:0F0D6A00010AEB647C4A70F50DBD00010C80E4BA
:010D79002257
:100BE3007BFF7A0879F2120D31120D567BFF7A08DA
:100BF30079F9120D31120D567BFF7A097907120D1F
:100C030031120D567BFF7A097913120D31120D56ED
:100C13007B007A007929120D7A7D007B007A0079B6
:100C230029120CD57BFF7A097925120D317FD07EED
:100C330007120D5A750BFF750C09750D2C7B007A85
:100C4300007929120B61EA494B60957BFF7A097998
:050C53002F120C5822D5
:100C58008B088A09890A7BFF7A097949120D317F45
:100C680022120DB7AB17AA18A919120D317F22123B
:100C78000DB77F0D120DB77F0A120DB77F2C7E01BD
:100C8800120D5AAB08AA09A90A120D317F1A120DC2
:100C9800B77FE87E03120D5A7B007A007929120D7E
:100CA8007A7D007B007A007929120CD5E4F514F5D9
:040CB80015F51622F6
:100D8F00120D567BFF7A097952120D317F647E0066
:030D9F00020D5AE8
:10080000AF1574292FF9E76442702AAF15742A2FA7
:10081000F9E76461701FAF15742B2FF9E7B47415F5
:10082000AF15742C2FF9E7B4310BD2A17BFF7A09F5
:1008300079580208D7AF1574292FF9E76454702945
:10084000AF15742A2FF9E76461701EAF15742B2F52
:10085000F9E7B47414AF15742C2FF9E7B4310AC258
:10086000A17BFF7A097969806EAF1574292FF9E7AA
:1008700064427029AF15742A2FF9E76461701EAFC6
:1008800015742B2FF9E7B47414AF15742C2FF9E7F6
:10089000B4320AD2A07BFF7A09797A803AAF157414
:1008A000292FF9E764547029AF15742A2FF9E764EA
:1008B00061701EAF15742B2FF9E7B47414AF157463
:1008C0002C2FF9E7B4320AC2A07BFF7A09798B801A
:0B08D000067BFF7A09799C120C58226D
:03002300020D01CA
:100D0100C0E0C0D075D000C000C007309819C2AF94
:100D1100AF1574292FF8A6990515E515700205146C
:100D2100751601C298D2AFD007D000D0D0D0E03232
:050DBF00D2AFD2AC220E
:0C0DA200759850758920758DFDD28E2249
:080DB7008F993099FDC29922C9
:100D31008B0B8A0C890DAB0BAA0CA90D120CBC6094
:100D410013050DE50D7002050C14F9120CBCFF1210
:050D51000DB780E22255
:03000000020A4BA6
:0C0A4B00787FE4F6D8FD75818C020A92D9
:100CBC00BB010689828A83E0225002E722BBFE0236
:090CCC00E32289828A83E4932269
:100D7A00E4FFFE120CBC600C0FEF70010E09E97063
:050D8A00F20A80EF22D7
:100B61008B088A09890AAB0BAA0CA90D120CBC606F
:100B710063AB08AA09A90A120CBC605F850B0E853C
:100B81000C0F850D108B118A128913AB0EAA0FA9B8
:100B910010120CBCFF6023AB11AA12A913120CBCDA
:100BA1006F7017042510F510E4350FF50F7401254A
:100BB10013F513E43512F51280D1AB0EAA0FA9106B
:100BC100120CBC7002800D7401250AF50AE4350986
:100BD100F509809DAB08AA09A90A227B007A007950
:020BE1000022F0
:100CD500EF4E6012EF60010EEDBB010B89828A8336
:100CE500F0A3DFFCDEFA2289F05007F709DFFCA943
:0C0CF500F022BBFEFCF309DFFCA9F0229A
:100A57000209A8E493A3F8E493A34003F68001F204
:100A670008DFF48029E493A3F85407240CC8C333A0
:100A7700C4540F4420C8834004F456800146F6DF6F
:100A8700E4800B0102040810204080900DAEE47E44
:100A9700019360BCA3FF543F30E509541FFEE49364
:100AA700A360010ECF54C025E060A840B8E493A32B
:100AB700FAE493A3F8E493A3C8C582C8CAC583CA56
:100AC700F0A3C8C582C8CAC583CADFE9DEE780BE0E
:010DB600003C
:00000001FF
