:10031F002B383439363739393232393800496E692A
:10032F007469616C697A696E672E00496E697469C8
:10033F00616C697A696E672E2E00496E6974696106
:10034F006C697A696E672E2E2E0057616974696E1B
:10035F00672E2E2E004C4544554E47202D20313907
:10036F003132393530002B434D540052494E47003E
:10037F00496E636F6D696E6700496E636F6D696E6D
:10038F00672E00496E636F6D696E672E2E00496E82
:10039F00636F6D696E672E2E2E00436163656C6C03
:1003AF006564004E6869657420446F2043616F2C4B
:1003BF0020446120547520446F6E67204261742081
:1003CF0051756174200020517561204E6869657404
:1003DF0020446F210020517561204E68696574209B
:1003EF00446F21210020517561204E68696574208A
:1003FF00446F21212100415445300D0A0041542BF7
:10040F004950523D393630300D0A0041542B434D7F
:10041F0047463D310D0A0041542B434E4D493D3265
:10042F002C322C302C300D0A00415426570D0A0067
:10043F004461204B686F6920446F6E672054686178
:10044F006E6820436F6E670A0D0052656164792EE6
:10045F002E2E0041542B434D47533D004154480D20
:10046F000A0052656C6179313A204F4E0D0A003106
:10047F00206E6577207461736B0031206E65772075
:10048F007461736B2E0031206E6577207461736B0E
:10049F002E2E0031206E6577207461736B2E2E2EF9
:1004AF000052656C617931206973204F4E0052659F
:1004BF006C6179313A204F46460D0A0052656C61E6
:1004CF007931206973204F46460052656C6179324D
:1004DF003A204F4E0D0A0052656C617932206973D4
:1004EF00204F4E0052656C6179323A204F46460DCF
:1004FF000A0052656C617932206973204F464600BD
:0E050F0053796E746178204572726F7221000C
:0D0AF7000216000002140000031AFF031F86
:10051D00C2A2C2A1C2A01209397F147E001200032B
:10052D00120B11E4FDFF120A3E7BFF7A03792C12A8
:10053D000A1B7FE87E03120003120B11E4FDFF126C
:10054D000A3E7BFF7A03793A120A1B7FE87E03127B
:10055D000003120B11E4FDFF120A3E7BFF7A0379B3
:10056D0049120A1B7FE87E03120003120B05120BC2
:10057D002D120819120B11E4FDFF120A3E7BFF7AB2
:10058D00037959120A1B7D01E4FF120A3E7BFF7AA3
:10059D00037964120A1BE517640145166003020610
:1005AD00807FF47E01120003750BFF750C03750D32
:1005BD00757B007A00792C120797EA494B601C1263
:1005CD000712851A0B851B0C851C0D7B007A007993
:1005DD001D120797E94A6003120026750BFF750C73
:1005ED0003750D7A7B007A00792C120797EA494B37
:1005FD007003020680120AAD120B11E4FDFF120A00
:10060D003E7BFF7A03797F120A1B7F647E00120006
:10061D0003120B11E4FDFF120A3E7BFF7A0379886A
:10062D00120A1B7F207E03120003120B11E4FDFF43
:10063D00120A3E7BFF7A037992120A1B7F207E03FA
:10064D00120003120B11E4FDFF120A3E7BFF7A0329
:10065D00799D120A1B7FF47E011200037D01E4FFD8
:10066D00120A3E7BFF7A0379A9120A1B7FB87E0B13
:09067D0012000312088B02058132
:10088B00C3E5199428E518648094804055D2A27B67
:10089B00FF7A0379B21208EE120B11E4FF120A3E33
:1008AB007BFF7A0379D5120A1B7F647E001200034B
:1008BB00120B11E4FDFF120A3E7BFF7A0379E4125F
:1008CB000A1B7FC87E00120003120B11E4FDFF12FE
:1008DB000A3E7BFF7A0379F4120A1B7FD07E071244
:0308EB00000322E5
:100A5E007B007A00792C120A987D007B007A00794F
:0E0A6E002C120997E4F514F515F516F517226C
:100819007BFF7A0479051209F67FC87E001200036E
:100829007BFF7A04790C1209F67FC87E0012000357
:100839007BFF7A04791A1209F67FC87E0012000339
:100849007BFF7A0479261209F67FC87E001200031D
:100859007BFF7A0479381209F67FD07E07120003EC
:100869007BFF7A04793F1208EE120B11E4FDFF12A7
:100879000A3E7BFF7A047959120A1B7FD07E070250
:0208890000036A
:1008EE008B088A09890A7BFF7A0479621209F67FDE
:1008FE0022120B1DAB1AAA1BA91C1209F67F22127B
:10090E000B1D7F0D120B1D7F0A120B1D7FC87E0063
:10091E00120003AB08AA09A90A1209F67F1A120BD4
:0B092E001D7F2C7E01120003020A5EF8
:100AAD007BFF7A04796B1209F67FC87E0012000372
:030ABD00020A5ECC
:10002600AF15742C2FF8E6644260030200E0AF15AA
:10003600742D2FF8E6646160030200E0AF15742E9C
:100046002FF8E6647460030200E0AF15742F2FF8F2
:10005600E6643160030200E0D2A0120A5E7BFF7AFA
:100066000479711208EE120B11E4FDFF120A3E7BB1
:10007600FF7A04797E120A1B7F647E001200031247
:100086000B11E4FDFF120A3E7BFF7A047989120AFE
:100096001B7FF47E01120003120B11E4FDFF120A0E
:1000A6003E7BFF7A047995120A1B7FF47E011200CB
:1000B60003120B11E4FDFF120A3E7BFF7A0479A2BC
:1000C600120A1B7FF47E011200037D01E4FF120A6F
:1000D6003E7BFF7A0479B002030BAF15742C2FF820
:1000E600E66454600302019AAF15742D2FF8E66496
:1000F60061600302019AAF15742E2FF8E6647460EE
:100106000302019AAF15742F2FF8E66431600302DB
:10011600019AC2A0120A5E7BFF7A0479BD1208EE2C
:10012600120B11E4FDFF120A3E7BFF7A04797E1260
:100136000A1B7F647E00120003120B11E4FDFF12FE
:100146000A3E7BFF7A047989120A1B7FF47E01122C
:100156000003120B11E4FDFF120A3E7BFF7A0479BD
:1001660095120A1B7FF47E01120003120B11E4FDA7
:10017600FF120A3E7BFF7A0479A2120A1B7FF47EE5
:10018600011200037D01E4FF120A3E7BFF7A047927
:10019600CB02030BAF15742C2FF8E6644260030202
:1001A6000254AF15742D2FF8E66461600302025401
:1001B600AF15742E2FF8E664746003020254AF156F
:1001C600742F2FF8E664326003020254D2A1120A99
:1001D6005E7BFF7A0479D91208EE120B11E4FDFF5B
:1001E600120A3E7BFF7A04797E120A1B7F647E0028
:1001F600120003120B11E4FDFF120A3E7BFF7A0484
:100206007989120A1B7FF47E01120003120B11E496
:10021600FDFF120A3E7BFF7A047995120A1B7FF4D2
:100226007E01120003120B11E4FDFF120A3E7BFF52
:100236007A0479A2120A1B7FF47E011200037D0163
:10024600E4FF120A3E7BFF7A0479E602030BAF1540
:10025600742C2FF8E664546003020315AF15742D51
:100266002FF8E664616003020315AF15742E2FF8AC
:10027600E664746003020315AF15742F2FF8E66465
:10028600326003020315C2A1120A5E7BFF7A04796B
:10029600F31208EE120B11E4FDFF120A3E7BFF7A01
:1002A60004797E120A1B7F647E00120003120B1172
:1002B600E4FDFF120A3E7BFF7A047989120A1B7F4E
:1002C600F47E01120003120B11E4FDFF120A3E7BBD
:1002D600FF7A047995120A1B7FF47E01120003123D
:1002E6000B11E4FDFF120A3E7BFF7A0479A2120A83
:1002F6001B7FF47E011200037D01E4FF120A3E7BA0
:10030600FF7A057901120A1B7FD07E070200037B64
:09031600FF7A05790F1208EE22AE
:10071200E4FFFEF514F515AD15742C2DF8E6640D05
:10072200600AAD15742C2DF8E6B40A0A0515E51514
:1007320070E5051480E1AD15742C2DF8E664226095
:100742000A0515E51570EF051480EB0515E5157022
:10075200020514E4FEFFAD15742C2DF8E6FD741DA0
:100762002FF8A6050515E515700205140FBF000147
:100772000EEF640C4E70DFAF15742C2FF8E6640A8E
:10078200600A0515E51570EF051480EB0515E515F2
:0407920070020514D8
:010796002240
:030023000209C30C
:1009C300C0E0C0D075D000C000C00730981CC2AFD3
:1009D300AF15742C2FF8A6990515E51570020514AB
:1009E300751600751701C298D2AFD007D000D0D0CA
:0309F300D0E0321F
:050B2D00D2AFD2AC22A2
:0C0B0500759850758920758DFDD28E22E8
:080B1D008F993099FDC2992265
:1009F6008B0B8A0C890DAB0BAA0CA90D12097E6014
:100A060013050DE50D7002050C14F912097EFF128F
:050A16000B1D80E2222F
:100AD300E4FDFCC3ED9FEC9E50070DBD00010C80AF
:010AE300F220
:010AE40022EF
:10000300E4FDFCC3ED9FEC9E5015E4FBFA0BBB0033
:0F001300010AEB647C4A70F50DBD00010C80E41E
:0100220022BB
:030AC000120A7C9B
:100AC300D2917F037E00120AD3C2917F32020AD3EE
:100A7C00EF139294EFC313139295EF1313543F1388
:0C0A8C009296EF131313541F139297223D
:100AE500AB07EBC4540FFF120AC0AF03120A7C0216
:020AF5000AC332
:0C0B11007F01120AE57F0A7E00020AD371
:10093900E4FF120A7C7F147E00120003C293C29264
:100949007F03120AC07F057E00120003120AC37FCB
:10095900647E00120AD3120AC37F02120A7C120AA9
:10096900C37F28120AE57F0C120AE57F06120AE501
:050979007F01020AE508
:100A3E00ED7006EF2480FA8004EF24C0FA7FE87E82
:100A4E0003120AD3AF02120AE57F327E00020AD3E6
:080B2500D293120AE5C29322EB
:100A1B008B088A09890AAB08AA09A90A12097EFF61
:100A2B006010120B257401250AF50AE43509F50946
:030A3B0080E42232
:030000000206866F
:0C068600787FE4F6D8FD75818F0206CD68
:10097E00BB010689828A83E0225002E722BBFE0277
:09098E00E32289828A83E49322AA
:100A9800E4FFFE12097E600C0FEF70010E09E97089
:050AA800F20A80EF22BC
:100797008B088A09890AAB0BAA0CA90D12097E607E
:1007A70063AB08AA09A90A12097E605F850B0E854B
:1007B7000C0F850D108B118A128913AB0EAA0FA986
:1007C7001012097EFF6023AB11AA12A91312097E2A
:1007D7006F7017042510F510E4350FF50F74012518
:1007E70013F513E43512F51280D1AB0EAA0FA91039
:1007F70012097E7002800D7401250AF50AE4350995
:10080700F509809DAB08AA09A90A227B007A00791D
:020817000022BD
:10099700EF4E6012EF60010EEDBB010B89828A8377
:1009A700F0A3DFFCDEFA2289F05007F709DFFCA984
:0C09B700F022BBFEFCF309DFFCA9F022DB
:1006920002051DE493A3F8E493A34003F68001F25C
:1006A20008DFF48029E493A3F85407240CC8C33369
:1006B200C4540F4420C8834004F456800146F6DF38
:1006C200E4800B0102040810204080900AF7E47EC7
:1006D200019360BCA3FF543F30E509541FFEE4932D
:1006E200A360010ECF54C025E060A840B8E493A3F4
:1006F200FAE493A3F8E493A3C8C582C8CAC583CA1F
:10070200F0A3C8C582C8CAC583CADFE9DEE780BED6
:010B040000F0
:00000001FF
